:020000040800F2
:1000000080090020010300083F03000841030008A5
:1000100043030008450300084703000800000000F0
:10002000000000000000000000000000490300087C
:100030004B030008000000004D030008B91600083B
:100040005103000851030008510300085103000840
:100050005103000851030008510300085103000830
:100060005103000851030008510300085103000820
:100070005103000851030008510300085103000810
:100080005103000851030008510300085103000800
:1000900051030008510300085103000851030008F0
:1000A00051030008510300085103000851030008E0
:1000B00051030008510300085103000851030008D0
:1000C00051030008510300085103000851030008C0
:1000D00051030008151C0008191C000851030008F2
:1000E00051030008510300085103000851030008A0
:1000F0005103000851030008510300085103000890
:10010000510300085103000851030008510300087F
:10011000510300085103000851030008510300086F
:10012000510300085103000851030008510300085F
:10013000510300085103000851030008510300084F
:10014000510300085103000851030008510300083F
:10015000510300085103000851030008510300082F
:10016000510300085103000851030008510300081F
:10017000510300085103000851030008000000006B
:10018000510300085103000800F002F800F0A8F83D
:1001900014A696E8000CB244B344DA4501D100F04D
:1001A0009FF8BAE80F000FA696E83000A5EB04050B
:1001B00004EB0607AAEB0704A7F101074FEA1515A0
:1001C0004FEA3414A4F10104AC4201D300F088F8E2
:1001D00013F0010F18BFFB1A43F0010300F001F800
:1001E000DBE71847D8270000F8270000103A24BFA3
:1001F00078C878C1FAD8520724BF30C830C144BF8C
:1002000004680C6070470000704700000023002461
:1002100000250026103A28BF78C1FBD8520728BF16
:1002200030C148BF0B6070476E2900F067817029AC
:1002300000F0AD82662902F00083652902F0FD829C
:10024000672902F0FA82612902F0F98203681B0A29
:1002500028BF41F08001692900F01481642900F071
:100260001181752900F00E816F2900F03B827829F9
:1002700000F07982E92900F0D581E42900F0D281EB
:10028000F52900F0CF81EF2900F03882F82900F03D
:1002900078820368DB0928BF41F08001632900F000
:1002A0008287732900F08787E32900F09287F3297A
:1002B00000F09787002070471FB502F0B1FA00F0F8
:1002C000E5FF04000020002102F094FA401C606069
:1002D0000020002102F078FAE0601FBD10B510BDCB
:1002E00000F0A7FF1146FFF7E7FF01F0BDFD01F0A9
:1002F00083F803B4FFF7F2FF03BC01F0CBF8000072
:1003000017481849184B99423CBF50F8042B41F844
:10031000042BF8D3154B16494FF000028B4238BF1F
:1003200043F8042BFAD3DFF84C00016841F4700164
:100330000160BFF34F8FBFF36F8F0F480047FEE799
:10034000FEE7FEE7FEE7FEE7FEE7FEE7FEE7FEE785
:10035000FEE7000009480A490A4A0B4B70470000B3
:10036000082B0008000000200800002008000020E2
:100370008009002088ED00E089010008800300204A
:100380008009002080050020800500200FB41CB5E6
:10039000084B06AA7B4469460090059800F0C7F810
:1003A00004460020694600F0D5F820461CBC5DF8E4
:1003B00014FB0000BD01000070477047704770B526
:1003C000044685690068C10601D5302600E0202674
:1003D000C00707D070BDD4E9012130469047206A9C
:1003E000401C20626D1EF6D570BD70B5044685694F
:1003F0000078C00707D170BDD4E9012120209047C3
:10040000206A401C20626D1EF6D570BD09684A0541
:1004100001D540B27047C905FCD500B270470968E4
:100420004A0501D5C0B27047C905FCD580B27047F6
:1004300070B50C460546012A05D02878800600D5FF
:10044000EA69002302E0012305E05B1C934202D22B
:10045000E05C0028F9D1A869E618C01AA861286AEA
:10046000184428622846FFF7AAFF04E0D5E90121D5
:1004700014F8010B9047B442F8D32846FFF7B5FFB4
:1004800070BD00002DE9F041064600241068752972
:10049000314616A510D0FFF7B9FF002802DA404216
:1004A00013A507E031688A0701D512A502E04907C4
:1004B00004D511A5012401E0FFF7B1FF00210A22B4
:1004C00006F1240709E0B0FBF2FCB0FBF2F302FBFB
:1004D0001C00303078541846491C0028F3D12346BC
:1004E0002A463046BDE8F04100F068BA000000003E
:1004F0002D0000002B0000002000000011680268A1
:10050000006A530501D508700AE0D30501D50880BB
:1005100006E0130603D5C217C1E9000200E0086037
:100520000120704701694A1C02610878704700B5D4
:100530008FB0CDE901310021059105497944CDE91C
:1005400003101146684600F02DF90FB000BD000001
:10055000E5FFFFFF0A6802F8010B0A607047000020
:100560002DE9FF5F15468A460446DFF8AC80F84463
:100570000027D8E900103E46CDE9001010E03AF817
:1005800016106A4602A800F030FE411C07D0217800
:10059000890603D5E269391891420DD80744761CC3
:1005A0002078800602D5E069B84205DDAE42E6DB80
:1005B0003AF816000028E2D1A069C01BA0612046CD
:1005C000FFF7FDFED8E90010CDE90010002017E08C
:1005D0003AF818106A4602A800F007FEB0F1FF3F93
:1005E00081460BD000250DF1080B05E0D4E901216F
:1005F0001BF8050090476D1C4D45F7D308F101002D
:10060000B0428046E4DB206A384420622046FFF78F
:10061000ECFE00F003B80000D22200003FBCBDE8B1
:10062000C09F00002DE9F0418046D21D22F0070254
:100630000025D2E90002F52915A614D0011E72F199
:10064000000106DA0023D0EB030063EB020211A6DF
:1006500008E0D8F800108B0701D50FA602E0490783
:1006600001D50EA601251146002408F1240704E057
:1006700000F05FF930323A55641C50EA0102F7D1BC
:100680002B46324621464046BDE8F04100F096B97F
:10069000000000002D0000002B00000020000000E2
:1006A00030B4002100F1240408E002F00705D2086C
:1006B000303542EA4372DB086554491C52EA0305AF
:1006C000F3D10468002310A2250708D504F0200404
:1006D0000C4304D0C46901230CA2641EC46130BC65
:1006E00000F06CB910B5044621461068FFF797FE7C
:1006F00002462046BDE810400023D1E7D21D22F07B
:100700000701D1E90023CBE7000000003000000022
:10071000F0B40D460188090502D5214C7C4402E065
:100720001F4C7C440E34002100F1240608E002F046
:100730000F071209E75D42EA03721B097754491C4F
:1007400052EA0307F3D102780023120704D5702D73
:1007500006D009B1022311342246F0BC00F02EB9B4
:1007600001231034F8E770B504460D4621461068A1
:10077000FFF755FE024629462046BDE8704000239B
:10078000C6E7D21D22F00703D3E90023C0E70368C0
:10079000126843F0200303600823C3610023B7E716
:1007A0002C2100002DE9F05F894604464FF0000A35
:1007B000DFF874B1FB44C0F820A02046E168884708
:1007C000002874D0252806D0D4E901219047206A5A
:1007D000401C2062F1E700265F462046E16888471A
:1007E0002028054607DB312D05D2781910F8200C9A
:1007F00008B10643F1E7B00701D526F00406C4F8B6
:100800001CA00027C4F818A02A2D09D0284601F002
:10081000D3FF38B304EB8708303DC8F8185019E00F
:1008200059F8041B204604EB87029161E168884770
:10083000012F054618D1E069002820DA26F02006AD
:100840001DE0D8F8180000EB800005EB40003038C0
:10085000C8F818002046E1688847054601F0ACFF5B
:100860000028EED1012F0AD02E2D08D12046E168B4
:1008700088477F1C0546022F46F02006C4DBA0698E
:10088000002803DA404246F00106A061F00701D0DB
:1008900026F010066C2D0BD0682D09D04C2D39D0C8
:1008A0006A2D35D0742D35D07A2D33D016E038E04E
:1008B000E1682F4620468847B842054609D16C2F8B
:1008C00026D04FF48060E1680643204688470546FD
:1008D00004E06C2F1AD04FF4807006430DB3A5F1DD
:1008E0004100192802D8203546F400664A462946B8
:1008F000204626604E46FFF797FC80B101280BD0BA
:10090000F61D26F0070000F1080956E74020E4E74D
:100910008020D8E70020D6E706F104094DE72846F5
:1009200052E7206A00F002B8BC20000030BCBDE8ED
:10093000C09F30B5B0F10A0271F100034FEA900E8A
:100940004EEA817EB0EB0E0061EB91014FEA101E82
:100950004EEA017E10EB0E0041EB11114FEA102E12
:100960004EEA016E10EB0E0041EB11214FEA104EE2
:100970004EEA014E10EB0E0041EB1141401841F1DF
:1009800000014FEAD00040EA41704FEAD1014FEA3E
:10099000810444EA907410EB800544EB01046D1966
:1009A00044EB0404521BA3414FF0000348BF0A323A
:1009B00000D530BD401C41F1000130BD2DE9F047AC
:1009C0000D4699469246044600F1240801688806BF
:1009D00004D5E06921F01001216000E00120A84267
:1009E00001DD471B00E00027A1697A1902EB09002D
:1009F000081AA0612078C00602D42046FFF7DFFC69
:100A0000002608E0D4E901211AF806009047206A80
:100A1000401C761C20624E45F4DB2078C0060AD5C7
:100A20002046FFF7CCFC06E0D4E9012130209047B6
:100A3000206A401C2062381EA7F10107F4DC07E0A1
:100A4000D4E9012118F805009047206A401C206273
:100A5000281EA5F10105F3DC2046FFF7C6FC20782F
:100A6000000602D50220BDE8F0870120FBE72DE952
:100A7000FF4F0C461E464FF0FF378BB0D2E9000106
:100A8000DDF860800A908A46C1F30A5505B93D46F3
:100A9000002108464FF00000BAF1000F00F44000BA
:100AA00005DA00EB80004FF4400101EA50004FEA04
:100AB0009059B9F1010F00DDB9460A9850EA4A0091
:100AC0000ED044F61050A5F2FF3545432F14B8F16F
:100AD000000F1ED07542291E1EDDC9F100021CE068
:100AE000B8F1010F4FF0000001D0302103E0F243D4
:100AF00005E02154401CB042FBDB304600220021BF
:100B000021540B99C1F80880C1E900200FB000F012
:100B1000BCB9BD1B6D1CDEE74A4600DA694206A877
:100B200000F0F8FB06AB93E8070003AB83E807008F
:100B300050460A9901F060FA8DE80700A0F50050D0
:100B40001F3800900398002D0ADD42F21F014A462B
:100B50000844002303A90390684601F0C9FC09E09A
:100B6000A0F500504A461F38002303A903906846A9
:100B700001F0D3FC8DE807000004000C03D04FF017
:100B8000FF30410800E01046B8F1000F03D000220A
:100B9000009215461EE0751E05D4FFF7CAFE3032DE
:100BA00062556D1EF9D5B3460122084302D00022DA
:100BB0007F1C04E02078302801D100227F1E002A0B
:100BC000099784D01DE0112D07DAFFF7B2FE30320D
:100BD00062556D1C50EA0102F5D1084302D000981D
:100BE000C8B10EE00021681E05E0235C625C63541E
:100BF0002254401E491C8142F7DBAB46A81B401E15
:100C00000990002004F80B000B98099AC0F808809E
:100C1000C0E9002B7AE711264FF0000857E72DE9CD
:100C2000F04F88460446D21D22F0070191B0D1E969
:100C30000001CDE90A0101F0A7FD02460B98C00FA3
:100C400001D02D2007E02068810701D52B2002E08C
:100C5000202101EAC000032A099001D0072A05DB00
:100C600003464146204600F015FB0BE12078800644
:100C700001D5E06900E00620B8F1650F814606D095
:100C8000B8F1660F18D0B8F1670F70D131E00020CD
:100C9000B9F1110F009001DB112301E009F101030B
:100CA0000AAA01A90CA8FFF7E2FEDDE90C700026F4
:100CB00009F10105834647E001204B4600904FF0C3
:100CC00000470AAA01A90CA8FFF7D1FEDDE90DB083
:100CD0000C995D46002610B909F101000D18B9EB19
:100CE000050003D4C0F1FF3609F10105A5EB0900A9
:100CF0002BE0B9F1010F01DA4FF001090020B9F141
:100D0000110F0090484601DD112300E003460AAAB6
:100D100001A90CA8FFF7ABFEDDE90C704D460026DB
:100D20008346207800070AD4AB4500DA5D4601A867
:100D3000012D04DD411911F8011C302907D04F4560
:100D400002DA17F1040F04DA012082460FE06D1E6B
:100D5000EEE7002F02DCED1B3E4403E0781CA842C6
:100D600000DD7D1CB81B00F1010A4FF00047207820
:100D7000000703D4AA4501DB4FF0FF3A0021B7F189
:100D8000004F0DF143088DF8431024D002202B238F
:100D9000002F01DA7F422D230A21021EA0F101005B
:100DA00000DC5FB197FBF1FC97FBF1F201FB1C7CCF
:100DB00017460CF1300C08F801CDEEE7A8F1010060
:100DC00003702188090501D5452100E06521A0F1C6
:100DD000010800F8011C09980FA9A1EB0807FF1DE5
:100DE00000B10120411901EBEA70A1693844081AE9
:100DF000401EA0612078C00602D42046FFF7DFFA2B
:100E0000099828B1D4E901219047206A401C20624A
:100E10002078C00622D52046FFF7D1FA1EE0002E2A
:100E200004DBB34502DD01A8805D00E03020D4E999
:100E300001219047206A401C2062761CAAF1010023
:100E40005FEA000A0AD100F021FAC0680168405C3C
:100E5000D4E901219047206A401C2062281EA5F198
:100E60000105DCDC07E0D4E9012118F8010B90470B
:100E7000206A401C2062381EA7F10107F3DC2046DF
:100E8000FFF7B3FA032011B041E630BCBDE8C08FD4
:100E90002DE9F04F04460D46D21D22F0070089B01F
:100EA000D0E900974846394601F06EFC0246F80F3B
:100EB00001D02D2307E02068810701D52B2302E014
:100EC000202101EAC0038DF820300BB1012000E0A1
:100ED0000020032A824601D0072A04DB2946204647
:100EE00000F0D8F93FE12078800601D40D2500E01C
:100EF000E569C7F30A560D2D49DA00214FEA175B61
:100F000008464FF00000002F00F4400007DA00EB25
:100F100080004FF4400100EBD07001EA60008115C1
:100F2000012901DD4FF0FF3100224FEA850CBCF1B1
:100F3000180F06D31346ACF118004FF08052C24090
:100F400003E04FF4801323FA0CF30CF10C0CBCF10A
:100F5000200F04D3ACF1200C09FA0CF001E007FAE1
:100F60000CF000294FF0004801DD18B90FE00ED158
:100F700040450CD319EB02095F4121B9404502D12C
:100F80009F4329EA0209BBEB175F00D0761C20883B
:100F9000000502D57B48784402E07A487844193845
:100FA00008AA302302F80A30037C0AF10101002E5E
:100FB0000AF1020A53546A4602DC4FF0300101E0A4
:100FC0004FF031014FF001088DF8001002D0A6F269
:100FD000FF3603E059EA470100D06B4E002D02DCDA
:100FE0002178090704D54FF002082E218DF8011051
:100FF000C44600210BE0C7F303433F01C35C491C17
:101000006D1E02F80830052908F1010801DA002DEB
:10101000F1DC00210CE000EB1973491C1B786D1EFC
:10102000082902F808304FEA091908F1010801DA25
:10103000002DF0DC21688B0602D516E0A8F101082E
:10104000E04505DD02EB080313F8013C302BF5D039
:10105000B8F1000F09DD02EB080313F8013C2E2B59
:1010600003D1090701D4A8F10108002D05DD3E21B7
:1010700002F808106D1E08F10108407C002E02F8ED
:10108000080008F1010804DA2D20764202F8080071
:1010900002E02B2002F808000A214FF47A70864201
:1010A00008F101080BDB96FBF0F3303302F808304F
:1010B00096FBF0F308F1010800FB136601E0642ED3
:1010C0000CDB642096FBF0F3303302F8083096FB1B
:1010D000F0F308F1010800FB136601E00A2E06DBBD
:1010E00096FBF1F0303002F8080008F1010896FB99
:1010F000F1F001FB1060303002F80800A16908F13E
:10110000010808EB050202EB0A00081AA06120782A
:10111000C00602D42046FFF752F9216A08AE01EB5F
:101120000A00206204E0D4E9012116F8010B90477F
:10113000BAF1010AF7D22078C00602D52046FFF79F
:101140003EF96E4609E016F8010B3E280FD0D4E9AF
:1011500001219047206A401C2062B8F10108F2D2B8
:101160002046FFF742F909B0032000F00FB8206ACB
:101170002844206203E0D4E90121302090476D1E0D
:10118000EBD3F8E7FE18000002FCFFFF30BCBDE81F
:10119000C08F10B5436913B1AFF3008001E0FFF7D2
:1011A00047F9012010BD127800F124010A700022D5
:1011B0004A700122EDE711684FF0FF32E9E710B500
:1011C000436913B1AFF3008001E0FFF7C9F90120D3
:1011D00010BD128800F1240182840022C284012201
:1011E000EDE711684FF0FF32E9E72DE9F0411646CF
:1011F0000C46054600F042F8036893F80101012807
:1012000007D0FF2C12D8185D80B101202C70BDE8EA
:10121000F081D3F807013246214603F20713C718BD
:101220002846BC46BDE8F041002360474FF0FF3040
:10123000EDE7754600F0EAF8AE460500694653460C
:1012400020F00700854618B020B5FFF783F8BDE809
:1012500020404FF000064FF000074FF000084FF01D
:10126000000BAC46ACE8C009ACE8C009ACE8C0096A
:10127000ACE8C00921F007018D46704710B500F0B9
:1012800005F8001D10BD00BF6D1500000048704737
:10129000280000202DE9F0411F460446032601687E
:1012A000072A01F4006004DB08B116A505E016A5C5
:1012B00003E008B115A500E015A521F0100020609D
:1012C000A069C01EA0610FB1401EA0612046FFF7BB
:1012D00076F84FB1D4E9012138469047206A401C86
:1012E0002062C01C206206E0206AFAE7D4E90121EE
:1012F00015F8010B9047761EF8D22046FFF775F8D7
:10130000BDE8F0814E414E006E616E00494E4600D0
:10131000696E66002DE9F047814616468AB0354869
:1013200078440DC88DE80D0032487844801C03AC29
:101330000DC884E80D0041F69B300844372190FB2E
:10134000F1F290FBF1F5A5F1800501FB12041B3CC5
:1013500002D56442012000E00020DFF898A080461A
:101360000027FA44AAF1BE0A0EE0E0070AD032468E
:10137000684607EB470101230AEB810101F0CDF834
:101380008DE8070064107F1C002CEED1194F7F44BC
:10139000AE3F19E0E80715D007EB04100DF1180A6D
:1013A00090E80E008AE80E00C068F04201D198195A
:1013B00008903246012306A903A801F0AEF803AB5A
:1013C00083E807006D10641C002DE3D14FF001038A
:1013D00032466946B8F1000F03A802D001F088F840
:1013E00001E001F09AF8C9E90001C9F808200AB043
:1013F000BDE8F0870416000010B50446AFF3008086
:101400002046BDE81040FEF774BF0000004870475A
:10141000080000200000000030B44FF0013C50F8FC
:10142000042B51F8043BCCFA52F4D51A20D1FCB964
:1014300050F8042B51F8043BCCFA52F4D51A17D1CA
:10144000B4B950F8042B51F8043BCCFA52F4D51A35
:101450000ED16CB950F8042B51F8043BCCFA52F47D
:10146000D51A05D1002CDAD030BC4FF000007047FF
:1014700029BAB1FA81F111F01801D1F120008440AC
:10148000F2D1CA40CB4012F0FF0213F0FF0330BC90
:10149000D01A704701491820ABBEFEE726000200B3
:1014A0007047000080B584B00390029141F248017A
:1014B000C4F20201086840F001000860142000F046
:1014C000BBFC0399086820F00100086003990868D4
:1014D00020F4804008600399086820F440500860B8
:1014E0000399086840F4005008600399086820F4E4
:1014F000407008600399086820F440600860039910
:10150000086820F0400008600399086840F08000F7
:1015100008600399086820F02000086003990868B3
:1015200000F0100008600399086820F004000860CB
:101530000399086820F0080008600399086840F0E3
:101540000200086011200190002100F053FC019876
:1015500000F0FEFBA821C4F20201086820F07060D0
:101560000860086840F0007008600399086840F05F
:101570000100086004B080BD80B582B00190019880
:1015800001280BD1FFE700F031FA00F0C9F943F66A
:101590000000C4F2010000F071FB10E00198022885
:1015A0000BD1FFE700F090FA00F036FA44F2004069
:1015B000C4F2000000F062FB00E0FFE7FFE702B0CA
:1015C00080BD000041F24C01C4F20201086840F005
:1015D0000400086040F60001C4F60001086820F429
:1015E00040600860086840F480600860086820F483
:1015F00040500860086840F480500860086820F493
:1016000040300860086840F480300860086820F4C2
:1016100040200860086840F48020086040F6080117
:10162000C4F60001086820F440600860086840F4CF
:1016300000600860086820F440500860086840F4C2
:1016400000500860086820F440300860086840F4E2
:1016500000300860086820F440200860086840F402
:101660000020086040F60401C4F60001086820F07C
:1016700020000860086820F040000860086820F436
:1016800080700860086820F40070086040F60C0163
:10169000C4F60001086820F440600860086820F47F
:1016A00040500860086820F440300860086820F462
:1016B000402008607047000080B540F27831C2F2E7
:1016C000000108680130086040F27030C2F200008A
:1016D00001680131016000680B2809D3FFE740F27F
:1016E0007031C2F200010020086000F001FCFFE749
:1016F00080BD000080B582B04EF21001CEF2000134
:10170000002008604EF21403CEF2000341F63F724F
:101710001A604EF21802CEF200021060086840F023
:1017200002000860086840F001000860086840F0A6
:10173000040008604FF0FF30019000F0F1FA0198CA
:10174000012100F035FB02B080BD000083B042F201
:101750000001C4F20201086820F007000860086870
:1017600040F00200086041F20001C4F20201086882
:1017700040F480700860FFE741F20000C4F202000C
:1017800000684005002801D4FFE7F5E7102002902B
:1017900041F20401C4F20201086820F0F850086028
:1017A000029A086840EA0260086041F20001C4F24F
:1017B0000201086820F080700860FFE741F2000035
:1017C000C4F2020000688001002801D5FFE7F5E7B8
:1017D00041F20C01C4F202010191086820F00300FB
:1017E0000860086840F0020008600868142262F38C
:1017F0000E2008600868012262F30610086008687D
:1018000020F0C0600860086840F08070086041F215
:101810000001C4F20201086840F080700860FFE730
:1018200041F20000C4F2020000688001002801D4E7
:10183000FFE7F5E741F20801C4F20201086820F071
:1018400003000860086840F003000860FFE741F209
:101850000800C4F20200006800F00C000C2801D05F
:10186000FFE7F4E741F20801C4F20201086820F042
:10187000F0000860086820F4E0600860086820F460
:101880006050086041F20001C4F20201086820F0D3
:1018900080600860FFE741F20000C4F202000068C7
:1018A0004001002801D5FFE7F5E741F21001C4F23D
:1018B00002010091086820F4FE400860086840F4C6
:1018C000C0500860086840F400300860086840F4C0
:1018D0008030086041F20001C4F20201086840F063
:1018E00080600860FFE741F20000C4F20200006877
:1018F0004001002801D4FFE7F5E741F28801C4F276
:101900000201086820F44000086041F26001C4F25E
:101910000201086840F40010086003B0704700003E
:1019200041F24C01C4F20201086840F00200086074
:1019300040F20041C4F60001086820F440500860FD
:10194000086840F400500860086820F440400860CF
:10195000086840F40040086040F22041C4F60001ED
:10196000086840F070600860086820F00060086057
:10197000086840F070400860086820F00040086087
:1019800040F20841C4F60001086820F440500860A5
:10199000086840F400500860086820F4404008607F
:1019A000086840F40040086040F20441C4F60001B9
:1019B000086820F040000860086820F08000086097
:1019C00040F20C41C4F60001086820F44050086061
:1019D000086840F480500860086820F440400860BF
:1019E000086840F4804008607047000041F26001E0
:1019F000C4F20201086840F48040086041F28801A6
:101A0000C4F20201086820F003000860086840F092
:101A1000010008607047000041F24C01C4F202016D
:101A2000086840F0010008604FF09041086820F01D
:101A300030000860086840F020000860086820F066
:101A4000C0000860086840F0800008602021C4F6EB
:101A50000001086840F470600860086820F40060C5
:101A60000860086840F470400860086820F400408E
:101A700008600821C4F60001086840F030000860E2
:101A8000086840F0C00008600421C4F6000108683E
:101A900020F004000860086820F0080008600C21AD
:101AA000C4F60001086820F030000860086840F0C3
:101AB00010000860086820F0C0000860086840F066
:101AC000400008607047000041F25801C4F2020172
:101AD000086840F40030086041F28801C4F2020155
:101AE000086820F00C000860086840F004000860F6
:101AF00040F20000C2F2000000687821C4F2020146
:101B000008607421C4F2020143F62800C4F2010007
:101B10000860704780B584B0039002910020019066
:101B2000FFE701980299884232D2FFE703980199B2
:101B3000405C30280AD1FFE7002000F01FFA42F68F
:101B40006010C0F6000000F025F81CE00398019931
:101B5000405C31280AD1FFE7012000F00FFA42F67D
:101B60007310C0F6000000F015F80BE0039801991F
:101B7000084400F00FF842F6A210C0F6000000F092
:101B800009F8FFE7FFE7FFE7019801300190C8E798
:101B900004B080BD80B584B003908420C4F20200FC
:101BA0000068D8B9FFE740F20000C2F200000190DF
:101BB0000068039A42F6B911C0F60001FEF7E6FB91
:101BC00001460198029100688C21C4F2020108606C
:101BD00002988421C4F20201086018E040F2040077
:101BE000C2F20000006840F27431C2F200010091BC
:101BF0000978405C039A42F6B911C0F60001FEF77D
:101C0000C5FB00990246087810440870FFE704B04D
:101C100080BD00007047000080B544F21C40C4F253
:101C2000000000688006002811D5FFE744F2244038
:101C3000C4F200000088C0B200F0ACF944F21C41CC
:101C4000C4F20001086820F02000086014E044F2AB
:101C50001C40C4F200000068400600280BD5FFE7D6
:101C600000F024F944F21C41C4F20001086820F09D
:101C700040000860FFE7FFE780BD000080B582B04C
:101C800001900199086820F0010008600199086836
:101C900020F0102008600199086820F400400860D6
:101CA0000199486820F440504860019942F28D0043
:101CB000C8600199086840F00C00086044F20041D7
:101CC000C4F20001086840F040000860086840F075
:101CD00020000860019843F60001C4F20101884227
:101CE00004D1FFE7252000F04BF80CE0019844F206
:101CF0000041C4F20001884204D1FFE7262000F031
:101D00003FF8FFE7FFE70199086840F0010008602D
:101D10000199886840F08000886002B080BD0000B2
:101D200081B08DF803009DF9030000280ED4FFE771
:101D30009DF9031001F01F02012090404A094EF264
:101D40000011CEF2000141F82200FFE701B0704718
:101D500081B08DF803009DF9030000280ED4FFE741
:101D60009DF9031001F01F02012090404A094EF234
:101D70000011CEF2000141F82200FFE701B07047E8
:101D800081B08DF803009DF9030000280ED4FFE711
:101D90009DF9031001F01F02012090404A094EF204
:101DA0000011CEF2000141F82200FFE701B07047B8
:101DB00082B08DF8070000919DF9070000280AD431
:101DC000FFE7009800019DF907104EF20042CEF2A5
:101DD000000288540BE0009800019DF8071001F004
:101DE0000F014EF61452CEF200028854FFE702B003
:101DF0007047000082B08DF8070000919DF9070040
:101E000000280AD4FFE7009800019DF907104EF260
:101E10000042CEF2000288540BE0009800019DF8C9
:101E2000071001F00F014EF61452CEF20002885452
:101E3000FFE702B07047000082B0019040F27830B6
:101E4000C2F2000000680090FFE740F27830C2F272
:101E5000000000680099401A0199884201D2FFE70A
:101E6000F3E702B07047000080B582B00020019017
:101E7000FFF76CFCFFF7A6FBFFF73CFC0220FFF727
:101E80007BFB8020C4F2020044F20041C4F2000156
:101E9000FFF708FB42F68D10C0F60000FFF77AFE50
:101EA000012000F06BF8FFE7FEE7000081B040F290
:101EB0000000C2F200000168009140F20402C2F288
:101EC0000002116801600099116000688C21C4F261
:101ED0000201086040F27431C2F2000108788422E5
:101EE000C4F2020210600020087001B070470000C8
:101EF00040F61401C4F6000108680020086040F2B2
:101F00007C30C2F20000026842F64010C0F60000C9
:101F100050F8222008681043086040F26820C2F29E
:101F2000000090F90000012813D1FFE740F27C3057
:101F3000C2F200000168013101600068082807DB77
:101F4000FFE740F27C31C2F2000100200860FFE7A9
:101F500013E040F27C30C2F20000016801390160F8
:101F60000068B0F1FF3F07DCFFE740F27C31C2F2CE
:101F7000000107200860FFE7FFE7704781B08DF898
:101F800003009DF8030040F26821C2F200010870CE
:101F900001B0704780B582B08DF8070040F26C2028
:101FA000C2F200000068FE2810DCFFE79DF8070081
:101FB00040F26C21C2F200010B6840F27022C2F2C2
:101FC0000002D054086801300860FFE79DF8070060
:101FD0000A280FD1FFE740F27020C2F200004FF450
:101FE0008071FFF797FD40F26C21C2F200010020E2
:101FF0000860FFE702B080BD5FEA400C08BF91F0C7
:10200000000F4FEA8C234FEAC12243EA51514FEAB5
:102010001C5018BF00F5F0404FEA300018BF41F0E7
:1020200000415FEA6C5C00F02980BCF1FF3F08BF13
:1020300040F080407047130C06BF12044FF0100CA4
:102040004FF0000C130E04BF12020CF1080C130F1A
:1020500004BF12010CF1040C930F04BF92000CF1A9
:10206000020CD30F04BF52000CF1010C11464FF0CB
:102070000002A0F11F00A0EB0C00704711F0004F10
:1020800008BF704731F000413FF4D5AF0B0C06BFDD
:1020900009044FF0100C4FF0000C0B0E04BF0902A6
:1020A0000CF1080C0B0F04BF09010CF1040C8B0F91
:1020B00004BF89000CF1020CCB0F04BF49000CF1E6
:1020C000010CCCF1200322FA03F341EA030102FAE6
:1020D0000CF2A0EB0C0000F10100704723F07F47E9
:1020E00020F07F4C80EA030000F00040ACEB0703D7
:1020F00003F57C5303F1FF032DE9804909B44FEA4E
:10210000144324EA03484FEA154B25EA0B4E0FF21D
:10211000042606EB13273E7803FB0667C7F5000786
:1021200007FB06F64FEAD64606F102064FEA543799
:1021300007FB066CCCF1005C4FEA1C472CEA074C0D
:102140000CFB06F507FB06F404EB15464FEA961662
:1021500049085FEA320234BF00204FF000404FEAE6
:10216000D13706FB07FC4FEA1C4C0CFB0BF7D21BCC
:1021700003FB0CF761EB07010CFB0EF7B0EB07401C
:1021800072EB17420CFB08F734BFA2EB0742B2EB2D
:10219000074261EB17414FEA0C444FEA910706FBF7
:1021A00007FC4FEA1C4C0CFB0BF7B0EBC74072EB83
:1021B000573203FB0CF734BFA2EBC742B2EBC74266
:1021C00061EB57310CFB0EF7B0EBC70072EB5772A7
:1021D0000CFB08F734BFA2EBC702B2EBC70261EBFE
:1021E00057714FEA816141EA92114FEA826242EAF5
:1021F00090124FEA806004EBCC04039F4FEAD13782
:1022000006FB07FC4FEA1C4C0CFB0BF7D21B03FB35
:102210000CF761EB07010CFB0EF7B0EB074072EB1C
:1022200017420CFB08F734BFA2EB0742B2EB0742A0
:1022300061EB17414FEA8C5504EB9C244FEA910760
:1022400006FB07FC4FEA1C4C0CFB0BF7B0EBC7403E
:1022500072EB573203FB0CF734BFA2EBC742B2EB71
:10226000C74261EB57310CFB0EF7B0EBC70072EBC6
:1022700057720CFB08F734BFA2EBC702B2EBC702E0
:1022800061EB57714FEA816141EA92114FEA826234
:1022900042EA90124FEA806015EB4C2544F10004AD
:1022A0004FEAD13706FB07FC4FEA1C4C0CFB0BF73F
:1022B000D21B03FB0CF761EB07010CFB0EF7B0EB35
:1022C000074072EB17420CFB08F734BFA2EB074242
:1022D000B2EB074261EB17414FEA813141EA92418B
:1022E0004FEA823242EA90424FEA80304FEA0C765F
:1022F00015EB1C1544F1000448EA03434EEA0B4871
:102300004FF0000EB2EB080C71EB030724BF6246DE
:1023100039464EEB0E0E4FF0000B0018524149416A
:102320004BEB0B0BB2EB080C71EB03077BF1000BD3
:1023300024BF624639464EEB0E0E4FF0000B0018DC
:10234000524149414BEB0B0BB2EB080C71EB03070D
:102350007BF1000B24BF624639464EEB0E0E51EA6C
:10236000020718BF46F0010616EB0E7655F1000283
:1023700054F1000103D5BDE88901BDE80088BDE83E
:102380008901BDE80048B619524141EB0101A3F1B2
:102390000103704780807F7E7D7C7B7A79787776B9
:1023A00076757473727171706F6E6E6D6C6C6B6A32
:1023B0006A696868676666656464636362616160D0
:1023C000605F5F5E5E5D5D5C5C5B5B5A5A5959584D
:1023D00058575756565555555454535352525251B7
:1023E000515050504F4F4F4E4E4D4D4D4C4C4C4B0D
:1023F0004B4B4A4A4A494949484848474747474654
:10240000464645454544444444434343434242428F
:10241000424141419C46002B30D477002BD04FEAFB
:1024200037071CB503B44FF010004FF01001BAF19C
:10243000000F06D0BCF1000FDCBF40F0080040F0F8
:1024400008014FF000000FBCBDE810400BF1010B7C
:10245000BBF1010F08BF5FEA170722BF12F10102AB
:1024600011F101014FF0004143F1000300F0004081
:1024700043EA00007047F9D35708D0E746EA06461A
:102480004FEA164613F1400F1FDD13F1200FDFBF97
:1024900016430A46002120335B42BED0C3F1200719
:1024A00046EA06464FEA164602FA07F746EA0706E4
:1024B00022FA03F2C3F1200701FA07F742EA070202
:1024C00021FA03F14FF00003A7E746EA020646EAC5
:1024D00006464FEA164646EA0106BCBF46EA0646ED
:1024E000360C4FF000034FF000024FF0000194E76C
:1024F0002DE9804C70B49A46934691E8380007C89D
:1025000031EA400C48BF34EA430C03D5FFF7E6FD3F
:10251000FFF780FFF0BCBDE8008C2DE9804C70B463
:102520009A46934691E8380007C810F0804F08BFDC
:1025300013F0804F03D100F005F8FFF76BFFF0BCFC
:10254000BDE8008C20F07F4723F07F4C80EA030039
:1025500000F0004007EB0C03A3F57C53A3F1FE034E
:1025600092F0000F00F0B38095F0000F00F077803C
:102570002DE901494FEA114021EA00484FEA14468B
:1025800024EA064700FB06FC08FB06F607FB08F8F2
:1025900018EB06484CEB164C00FB07F718EB074806
:1025A0004CEB17404FEA124B22EA0B4E4FEA15460E
:1025B00025EA06470BFB06FC0EFB06F607FB0EFEA4
:1025C0001EEB064E4CEB164C0BFB07F71EEB074EB3
:1025D0004CEB174B18EB0B0840F1000018EB0E0BFF
:1025E00058EB000840F100008F1A4FF000014FF047
:1025F00000063CBFC943661B14BFB5EB040C0021A9
:102600003CBFC943F61B4FEA174427EA04454FEA8B
:102610001C472CEA074C04FB076205FB07F70CFB81
:1026200005F616EB074642EB174204FB0CFC16EBD3
:102630000C4642EB1C421BEB060658EB02024141E2
:102640004EEA8E0E46EA9E0601D5BDE80189B6190E
:10265000524141EB0101A3F10103BDE801894FEAB9
:10266000144524EA05464FEA114721EA074C05FBC9
:1026700007F406FB07F70CFB06F111EB074144EBEF
:10268000174405FB0CFC11EB0C4144EB1C444FEAD6
:10269000124722EA074C05FB07F206FB07F70CFB83
:1026A00006F616EB074642EB174205FB0CFC16EB51
:1026B0000C4642EB1C456A1854F1000148BF7047B4
:1026C000B619524141EB0101A3F10103704795F0A6
:1026D000000F37D04FEA114221EA02464FEA144771
:1026E00024EA074C02FB07F106FB07F70CFB06F494
:1026F00014EB074441EB174102FB0CFC14EB0C44B8
:1027000041EB1C414FEA154725EA074C02FB07F550
:1027100006FB07F70CFB06F616EB074645EB1745DD
:1027200002FB0CFC16EB0C4645EB1C42121951F156
:10273000000148BF7047B619524141EB0101A3F1B6
:10274000010370474FEA144524EA05464FEA114752
:1027500021EA074C05FB07F106FB07F70CFB06F225
:1027600012EB074241EB174105FB0CFC12EB0C424C
:1027700051EB1C414FF0000648BF7047921841EBE7
:102780000101A3F10103704703B4019841000098CF
:1027900050EAC12018BF04204A0D18BF40F00100C4
:1027A00040F2FF72B2EB515F08BF40F00200012817
:1027B00008BF052002B0704730380A2801D2012036
:1027C000704700207047000010B500290AD0087833
:1027D000002807D005487844FEF71EFE002801D0E7
:1027E000002010BD0248784410BD00000602000021
:1027F000FE01000010B500290AD00878002807D093
:1028000005487844FEF708FE002801D0002010BDDE
:102810000248784410BD0000F6010000EE010000FF
:10282000F1EE100A4FF6FF71C0F2C03120EA01004C
:1028300040F04070E1EE100A7047FEF7F0B9FEF785
:1028400027BB0000000000000000000030313233E0
:1028500034353637383941424344454640305800D4
:102860003031323334353637383961626364656606
:102870004030780004000008000000000000000262
:1028800000010000103031323334353637383961C9
:1028900062636465667870003031323334353637C0
:1028A0003839414243444546585000000240000038
:1028B000000000A00000000005400000000000C86B
:1028C000000000000C4000000000409C00000000E0
:1028D000194000000020BCBE000000003440000091
:1028E000BFC91B8E00000004B5400000504BCFD084
:1028F0006607E2CF010000006C4100003E8251AA51
:10290000DFEEA73401000000D9420000DCB5A0E2F0
:102910003A301F97FFFFFFFFB4450000FD25A0C818
:10292000E9A3C14FFFFFFFFFFF3F00000000008051
:1029300000000000FF3F00000000008000000000D9
:102940002002000020000000200100000001000023
:1029500040010000400000004002000000020000B2
:102960005475726E696E6720636C6F636B77697301
:10297000650A005475726E696E6720636F756E74B8
:102980006572636C6F636B776973650A005468697D
:10299000732070726F6772616D20737461727473EB
:1029A0000A00206973206E6F7420612076616C6963
:1029B0006420696E7075740A00257300082B000886
:1029C0000000002008000000EC010008102B0008A7
:1029D00008000020780900000C0200081C0000001C
:1029E00043000000F8FFFFFF0C0000000E00000095
:1029F0000F0000002E000000100100004300000046
:102A0000F8FFFFFF0040404040404040404041410F
:102A100041414140404040404040404040404040B3
:102A2000404040404005020202020202020202024D
:102A3000020202020220202020202020202020024A
:102A400002020202020290909090909010101010DA
:102A50001010101010101010101010101010101076
:102A6000020202020202888888888888080808080A
:102A700008080808080808080808080808080808D6
:102A800002020202400000000000000000000000FE
:102A90000000000000000000000000000000000036
:102AA0000000000000000000000000000000000026
:102AB0000000000000000000000000000000000016
:102AC0000000000000000000000000000000000006
:102AD00000000000000000000000000000000000F6
:102AE00000000000000000000000000000000000E6
:102AF00000000000000000000000000000000000D6
:102B000000000000000000006800002068010020B4
:040000050800018965
:00000001FF
